{
  "_format": "hh-sol-artifact-1",
  "contractName": "NFTCallSpreadKeeper",
  "sourceName": "contracts/NFTCallSpreadKeeper.sol",
  "abi": [
    {
      "inputs": [
        {
          "internalType": "address",
          "name": "_nftCallSpread",
          "type": "address"
        },
        {
          "internalType": "uint256",
          "name": "_checkGasLimit",
          "type": "uint256"
        },
        {
          "internalType": "uint256",
          "name": "_maxBatchSize",
          "type": "uint256"
        }
      ],
      "stateMutability": "nonpayable",
      "type": "constructor"
    },
    {
      "inputs": [],
      "name": "checkGasLimit",
      "outputs": [
        {
          "internalType": "uint256",
          "name": "",
          "type": "uint256"
        }
      ],
      "stateMutability": "view",
      "type": "function"
    },
    {
      "inputs": [
        {
          "internalType": "bytes",
          "name": "",
          "type": "bytes"
        }
      ],
      "name": "checkUpkeep",
      "outputs": [
        {
          "internalType": "bool",
          "name": "upkeepNeeded",
          "type": "bool"
        },
        {
          "internalType": "bytes",
          "name": "performData",
          "type": "bytes"
        }
      ],
      "stateMutability": "view",
      "type": "function"
    },
    {
      "inputs": [],
      "name": "lastProcessedId",
      "outputs": [
        {
          "internalType": "uint256",
          "name": "",
          "type": "uint256"
        }
      ],
      "stateMutability": "view",
      "type": "function"
    },
    {
      "inputs": [],
      "name": "maxBatchSize",
      "outputs": [
        {
          "internalType": "uint256",
          "name": "",
          "type": "uint256"
        }
      ],
      "stateMutability": "view",
      "type": "function"
    },
    {
      "inputs": [],
      "name": "nftCallSpread",
      "outputs": [
        {
          "internalType": "contract NFTCallSpread",
          "name": "",
          "type": "address"
        }
      ],
      "stateMutability": "view",
      "type": "function"
    },
    {
      "inputs": [
        {
          "internalType": "bytes",
          "name": "performData",
          "type": "bytes"
        }
      ],
      "name": "performUpkeep",
      "outputs": [],
      "stateMutability": "nonpayable",
      "type": "function"
    },
    {
      "inputs": [
        {
          "internalType": "uint256",
          "name": "_maxBatchSize",
          "type": "uint256"
        }
      ],
      "name": "setMaxBatchSize",
      "outputs": [],
      "stateMutability": "nonpayable",
      "type": "function"
    }
  ],
  "bytecode": "0x60a06040523480156200001157600080fd5b5060405162000f0038038062000f00833981810160405281019062000037919062000134565b826000806101000a81548173ffffffffffffffffffffffffffffffffffffffff021916908373ffffffffffffffffffffffffffffffffffffffff16021790555081608081815250508060028190555050505062000190565b600080fd5b600073ffffffffffffffffffffffffffffffffffffffff82169050919050565b6000620000c18262000094565b9050919050565b620000d381620000b4565b8114620000df57600080fd5b50565b600081519050620000f381620000c8565b92915050565b6000819050919050565b6200010e81620000f9565b81146200011a57600080fd5b50565b6000815190506200012e8162000103565b92915050565b60008060006060848603121562000150576200014f6200008f565b5b60006200016086828701620000e2565b935050602062000173868287016200011d565b925050604062000186868287016200011d565b9150509250925092565b608051610d54620001ac60003960006104eb0152610d546000f3fe608060405234801561001057600080fd5b506004361061007d5760003560e01c80636e04ff0d1161005b5780636e04ff0d146100d8578063bf55dfd414610109578063e343dc2d14610127578063ef94720d146101455761007d565b80632913daa0146100825780632b26a6bf146100a05780634585e33b146100bc575b600080fd5b61008a610163565b60405161009791906105f3565b60405180910390f35b6100ba60048036038101906100b5919061064e565b610169565b005b6100d660048036038101906100d191906106e0565b610173565b005b6100f260048036038101906100ed91906106e0565b610255565b6040516101009291906107d8565b60405180910390f35b6101116104bf565b60405161011e9190610887565b60405180910390f35b61012f6104e3565b60405161013c91906105f3565b60405180910390f35b61014d6104e9565b60405161015a91906105f3565b60405180910390f35b60025481565b8060028190555050565b600080838381019061018591906109e0565b9150915060005b82518110156102475760008054906101000a900473ffffffffffffffffffffffffffffffffffffffff1673ffffffffffffffffffffffffffffffffffffffff166337b371d98483815181106101e4576101e3610a3c565b5b60200260200101516040518263ffffffff1660e01b815260040161020891906105f3565b600060405180830381600087803b15801561022257600080fd5b505af1925050508015610233575060015b50808061023f90610a9a565b91505061018c565b508060018190555050505050565b600060606000600154905060008060025467ffffffffffffffff81111561027f5761027e6108a2565b5b6040519080825280602002602001820160405280156102ad5781602001602082028036833780820191505090505b5090505b6002548210156103d35760008054906101000a900473ffffffffffffffffffffffffffffffffffffffff1673ffffffffffffffffffffffffffffffffffffffff16636352211e846040518263ffffffff1660e01b815260040161031491906105f3565b602060405180830381865afa92505050801561034e57506040513d601f19601f8201168201806040525081019061034b9190610b20565b60015b156103c05760008060008060008060006103678b61050d565b9650965096509650965096509650801580156103835750428511155b156103b7578a898b8151811061039c5761039b610a3c565b5b60200260200101818152505089806103b390610a9a565b9a50505b50505050505050505b82806103cb90610a9a565b9350506102b1565b60008211156104b05760008267ffffffffffffffff8111156103f8576103f76108a2565b5b6040519080825280602002602001820160405280156104265781602001602082028036833780820191505090505b50905060005b838110156104815782818151811061044757610446610a3c565b5b602002602001015182828151811061046257610461610a3c565b5b602002602001018181525050808061047990610a9a565b91505061042c565b508084604051602001610495929190610c0b565b604051602081830303815290604052945060019550506104b5565b600094505b5050509250929050565b60008054906101000a900473ffffffffffffffffffffffffffffffffffffffff1681565b60015481565b7f000000000000000000000000000000000000000000000000000000000000000081565b60008060008060008060008060009054906101000a900473ffffffffffffffffffffffffffffffffffffffff1673ffffffffffffffffffffffffffffffffffffffff16639abe0d58896040518263ffffffff1660e01b815260040161057291906105f3565b60e060405180830381865afa15801561058f573d6000803e3d6000fd5b505050506040513d601f19601f820116820180604052508101906105b39190610c7c565b809750819850829950839a50849b50859c50869d5050505050505050919395979092949650565b6000819050919050565b6105ed816105da565b82525050565b600060208201905061060860008301846105e4565b92915050565b6000604051905090565b600080fd5b600080fd5b61062b816105da565b811461063657600080fd5b50565b60008135905061064881610622565b92915050565b60006020828403121561066457610663610618565b5b600061067284828501610639565b91505092915050565b600080fd5b600080fd5b600080fd5b60008083601f8401126106a05761069f61067b565b5b8235905067ffffffffffffffff8111156106bd576106bc610680565b5b6020830191508360018202830111156106d9576106d8610685565b5b9250929050565b600080602083850312156106f7576106f6610618565b5b600083013567ffffffffffffffff8111156107155761071461061d565b5b6107218582860161068a565b92509250509250929050565b60008115159050919050565b6107428161072d565b82525050565b600081519050919050565b600082825260208201905092915050565b60005b83811015610782578082015181840152602081019050610767565b60008484015250505050565b6000601f19601f8301169050919050565b60006107aa82610748565b6107b48185610753565b93506107c4818560208601610764565b6107cd8161078e565b840191505092915050565b60006040820190506107ed6000830185610739565b81810360208301526107ff818461079f565b90509392505050565b600073ffffffffffffffffffffffffffffffffffffffff82169050919050565b6000819050919050565b600061084d61084861084384610808565b610828565b610808565b9050919050565b600061085f82610832565b9050919050565b600061087182610854565b9050919050565b61088181610866565b82525050565b600060208201905061089c6000830184610878565b92915050565b7f4e487b7100000000000000000000000000000000000000000000000000000000600052604160045260246000fd5b6108da8261078e565b810181811067ffffffffffffffff821117156108f9576108f86108a2565b5b80604052505050565b600061090c61060e565b905061091882826108d1565b919050565b600067ffffffffffffffff821115610938576109376108a2565b5b602082029050602081019050919050565b600061095c6109578461091d565b610902565b9050808382526020820190506020840283018581111561097f5761097e610685565b5b835b818110156109a857806109948882610639565b845260208401935050602081019050610981565b5050509392505050565b600082601f8301126109c7576109c661067b565b5b81356109d7848260208601610949565b91505092915050565b600080604083850312156109f7576109f6610618565b5b600083013567ffffffffffffffff811115610a1557610a1461061d565b5b610a21858286016109b2565b9250506020610a3285828601610639565b9150509250929050565b7f4e487b7100000000000000000000000000000000000000000000000000000000600052603260045260246000fd5b7f4e487b7100000000000000000000000000000000000000000000000000000000600052601160045260246000fd5b6000610aa5826105da565b91507fffffffffffffffffffffffffffffffffffffffffffffffffffffffffffffffff8203610ad757610ad6610a6b565b5b600182019050919050565b6000610aed82610808565b9050919050565b610afd81610ae2565b8114610b0857600080fd5b50565b600081519050610b1a81610af4565b92915050565b600060208284031215610b3657610b35610618565b5b6000610b4484828501610b0b565b91505092915050565b600081519050919050565b600082825260208201905092915050565b6000819050602082019050919050565b610b82816105da565b82525050565b6000610b948383610b79565b60208301905092915050565b6000602082019050919050565b6000610bb882610b4d565b610bc28185610b58565b9350610bcd83610b69565b8060005b83811015610bfe578151610be58882610b88565b9750610bf083610ba0565b925050600181019050610bd1565b5085935050505092915050565b60006040820190508181036000830152610c258185610bad565b9050610c3460208301846105e4565b9392505050565b600081519050610c4a81610622565b92915050565b610c598161072d565b8114610c6457600080fd5b50565b600081519050610c7681610c50565b92915050565b600080600080600080600060e0888a031215610c9b57610c9a610618565b5b6000610ca98a828b01610c3b565b9750506020610cba8a828b01610c3b565b9650506040610ccb8a828b01610c3b565b9550506060610cdc8a828b01610c3b565b9450506080610ced8a828b01610b0b565b93505060a0610cfe8a828b01610b0b565b92505060c0610d0f8a828b01610c67565b9150509295989194975092955056fea2646970667358221220fb01f17d8a1f0753cd8608b2d1e0c0465eac5500aa7b2ddc3b3bbb73a12be8bd64736f6c63430008140033",
  "linkReferences": {},
  "deployedLinkReferences": {}
}