{
  "_format": "hh-sol-artifact-1",
  "contractName": "MockV3Aggregator",
  "sourceName": "contracts/mocks/MockV3Aggregator.sol",
  "abi": [
    {
      "inputs": [
        {
          "internalType": "uint8",
          "name": "_decimals",
          "type": "uint8"
        },
        {
          "internalType": "int256",
          "name": "_initialAnswer",
          "type": "int256"
        }
      ],
      "stateMutability": "nonpayable",
      "type": "constructor"
    },
    {
      "inputs": [],
      "name": "decimals",
      "outputs": [
        {
          "internalType": "uint8",
          "name": "",
          "type": "uint8"
        }
      ],
      "stateMutability": "view",
      "type": "function"
    },
    {
      "inputs": [
        {
          "internalType": "uint256",
          "name": "",
          "type": "uint256"
        }
      ],
      "name": "getAnswer",
      "outputs": [
        {
          "internalType": "int256",
          "name": "",
          "type": "int256"
        }
      ],
      "stateMutability": "view",
      "type": "function"
    },
    {
      "inputs": [
        {
          "internalType": "uint80",
          "name": "_roundId",
          "type": "uint80"
        }
      ],
      "name": "getRoundData",
      "outputs": [
        {
          "internalType": "uint80",
          "name": "roundId",
          "type": "uint80"
        },
        {
          "internalType": "int256",
          "name": "answer",
          "type": "int256"
        },
        {
          "internalType": "uint256",
          "name": "startedAt",
          "type": "uint256"
        },
        {
          "internalType": "uint256",
          "name": "updatedAt",
          "type": "uint256"
        },
        {
          "internalType": "uint80",
          "name": "answeredInRound",
          "type": "uint80"
        }
      ],
      "stateMutability": "view",
      "type": "function"
    },
    {
      "inputs": [
        {
          "internalType": "uint256",
          "name": "",
          "type": "uint256"
        }
      ],
      "name": "getTimestamp",
      "outputs": [
        {
          "internalType": "uint256",
          "name": "",
          "type": "uint256"
        }
      ],
      "stateMutability": "view",
      "type": "function"
    },
    {
      "inputs": [],
      "name": "latestAnswer",
      "outputs": [
        {
          "internalType": "int256",
          "name": "",
          "type": "int256"
        }
      ],
      "stateMutability": "view",
      "type": "function"
    },
    {
      "inputs": [],
      "name": "latestRound",
      "outputs": [
        {
          "internalType": "uint256",
          "name": "",
          "type": "uint256"
        }
      ],
      "stateMutability": "view",
      "type": "function"
    },
    {
      "inputs": [],
      "name": "latestRoundData",
      "outputs": [
        {
          "internalType": "uint80",
          "name": "roundId",
          "type": "uint80"
        },
        {
          "internalType": "int256",
          "name": "answer",
          "type": "int256"
        },
        {
          "internalType": "uint256",
          "name": "startedAt",
          "type": "uint256"
        },
        {
          "internalType": "uint256",
          "name": "updatedAt",
          "type": "uint256"
        },
        {
          "internalType": "uint80",
          "name": "answeredInRound",
          "type": "uint80"
        }
      ],
      "stateMutability": "view",
      "type": "function"
    },
    {
      "inputs": [],
      "name": "latestTimestamp",
      "outputs": [
        {
          "internalType": "uint256",
          "name": "",
          "type": "uint256"
        }
      ],
      "stateMutability": "view",
      "type": "function"
    },
    {
      "inputs": [
        {
          "internalType": "int256",
          "name": "_answer",
          "type": "int256"
        }
      ],
      "name": "updateAnswer",
      "outputs": [],
      "stateMutability": "nonpayable",
      "type": "function"
    },
    {
      "inputs": [
        {
          "internalType": "uint80",
          "name": "_roundId",
          "type": "uint80"
        },
        {
          "internalType": "int256",
          "name": "_answer",
          "type": "int256"
        },
        {
          "internalType": "uint256",
          "name": "_timestamp",
          "type": "uint256"
        },
        {
          "internalType": "uint256",
          "name": "_startedAt",
          "type": "uint256"
        }
      ],
      "name": "updateRoundData",
      "outputs": [],
      "stateMutability": "nonpayable",
      "type": "function"
    }
  ],
  "bytecode": "0x608060405234801561001057600080fd5b506040516109583803806109588339818101604052810190610032919061014d565b816000806101000a81548160ff021916908360ff16021790555061005b8161006260201b60201c565b505061020e565b806001819055504260028190555060036000815480929190610083906101c6565b919050555080600460006003548152602001908152602001600020819055504260056000600354815260200190815260200160002081905550426006600060035481526020019081526020016000208190555050565b600080fd5b600060ff82169050919050565b6100f4816100de565b81146100ff57600080fd5b50565b600081519050610111816100eb565b92915050565b6000819050919050565b61012a81610117565b811461013557600080fd5b50565b60008151905061014781610121565b92915050565b60008060408385031215610164576101636100d9565b5b600061017285828601610102565b925050602061018385828601610138565b9150509250929050565b7f4e487b7100000000000000000000000000000000000000000000000000000000600052601160045260246000fd5b6000819050919050565b60006101d1826101bc565b91507fffffffffffffffffffffffffffffffffffffffffffffffffffffffffffffffff82036102035761020261018d565b5b600182019050919050565b61073b8061021d6000396000f3fe608060405234801561001057600080fd5b506004361061009e5760003560e01c80639a6fc8f5116100665780639a6fc8f514610137578063a87a20ce1461016b578063b5ab58dc14610187578063b633620c146101b7578063feaf968c146101e75761009e565b8063313ce567146100a35780634aa2011f146100c157806350d25bcd146100dd578063668a0f02146100fb5780638205bf6a14610119575b600080fd5b6100ab610209565b6040516100b8919061041c565b60405180910390f35b6100db60048036038101906100d691906104ea565b61021a565b005b6100e561028f565b6040516100f29190610560565b60405180910390f35b610103610295565b604051610110919061058a565b60405180910390f35b61012161029b565b60405161012e919061058a565b60405180910390f35b610151600480360381019061014c91906105a5565b6102a1565b6040516101629594939291906105e1565b60405180910390f35b61018560048036038101906101809190610634565b61031e565b005b6101a1600480360381019061019c9190610661565b610395565b6040516101ae9190610560565b60405180910390f35b6101d160048036038101906101cc9190610661565b6103ad565b6040516101de919061058a565b60405180910390f35b6101ef6103c5565b6040516102009594939291906105e1565b60405180910390f35b60008054906101000a900460ff1681565b8369ffffffffffffffffffff16600381905550826001819055508160028190555082600460006003548152602001908152602001600020819055508160056000600354815260200190815260200160002081905550806006600060035481526020019081526020016000208190555050505050565b60015481565b60035481565b60025481565b600080600080600085600460008869ffffffffffffffffffff16815260200190815260200160002054600660008969ffffffffffffffffffff16815260200190815260200160002054600560008a69ffffffffffffffffffff16815260200190815260200160002054899450945094509450945091939590929450565b80600181905550426002819055506003600081548092919061033f906106bd565b919050555080600460006003548152602001908152602001600020819055504260056000600354815260200190815260200160002081905550426006600060035481526020019081526020016000208190555050565b60046020528060005260406000206000915090505481565b60056020528060005260406000206000915090505481565b600080600080600060035460015460066000600354815260200190815260200160002054600254600354945094509450945094509091929394565b600060ff82169050919050565b61041681610400565b82525050565b6000602082019050610431600083018461040d565b92915050565b600080fd5b600069ffffffffffffffffffff82169050919050565b61045b8161043c565b811461046657600080fd5b50565b60008135905061047881610452565b92915050565b6000819050919050565b6104918161047e565b811461049c57600080fd5b50565b6000813590506104ae81610488565b92915050565b6000819050919050565b6104c7816104b4565b81146104d257600080fd5b50565b6000813590506104e4816104be565b92915050565b6000806000806080858703121561050457610503610437565b5b600061051287828801610469565b94505060206105238782880161049f565b9350506040610534878288016104d5565b9250506060610545878288016104d5565b91505092959194509250565b61055a8161047e565b82525050565b60006020820190506105756000830184610551565b92915050565b610584816104b4565b82525050565b600060208201905061059f600083018461057b565b92915050565b6000602082840312156105bb576105ba610437565b5b60006105c984828501610469565b91505092915050565b6105db8161043c565b82525050565b600060a0820190506105f660008301886105d2565b6106036020830187610551565b610610604083018661057b565b61061d606083018561057b565b61062a60808301846105d2565b9695505050505050565b60006020828403121561064a57610649610437565b5b60006106588482850161049f565b91505092915050565b60006020828403121561067757610676610437565b5b6000610685848285016104d5565b91505092915050565b7f4e487b7100000000000000000000000000000000000000000000000000000000600052601160045260246000fd5b60006106c8826104b4565b91507fffffffffffffffffffffffffffffffffffffffffffffffffffffffffffffffff82036106fa576106f961068e565b5b60018201905091905056fea26469706673582212205a8aacf67d8fb6da77e374efddb9e3128a4417584957917a88dade4a117b7ae264736f6c63430008140033",
  "linkReferences": {},
  "deployedLinkReferences": {}
}