{
  "_format": "hh-sol-artifact-1",
  "contractName": "NFTCallSpread",
  "sourceName": "contracts/NFTCallSpread.sol",
  "abi": [
    {
      "inputs": [
        {
          "internalType": "address",
          "name": "_stablecoin",
          "type": "address"
        },
        {
          "internalType": "address",
          "name": "_priceFeed",
          "type": "address"
        }
      ],
      "stateMutability": "nonpayable",
      "type": "constructor"
    },
    {
      "inputs": [
        {
          "internalType": "address",
          "name": "sender",
          "type": "address"
        },
        {
          "internalType": "uint256",
          "name": "tokenId",
          "type": "uint256"
        },
        {
          "internalType": "address",
          "name": "owner",
          "type": "address"
        }
      ],
      "name": "ERC721IncorrectOwner",
      "type": "error"
    },
    {
      "inputs": [
        {
          "internalType": "address",
          "name": "operator",
          "type": "address"
        },
        {
          "internalType": "uint256",
          "name": "tokenId",
          "type": "uint256"
        }
      ],
      "name": "ERC721InsufficientApproval",
      "type": "error"
    },
    {
      "inputs": [
        {
          "internalType": "address",
          "name": "approver",
          "type": "address"
        }
      ],
      "name": "ERC721InvalidApprover",
      "type": "error"
    },
    {
      "inputs": [
        {
          "internalType": "address",
          "name": "operator",
          "type": "address"
        }
      ],
      "name": "ERC721InvalidOperator",
      "type": "error"
    },
    {
      "inputs": [
        {
          "internalType": "address",
          "name": "owner",
          "type": "address"
        }
      ],
      "name": "ERC721InvalidOwner",
      "type": "error"
    },
    {
      "inputs": [
        {
          "internalType": "address",
          "name": "receiver",
          "type": "address"
        }
      ],
      "name": "ERC721InvalidReceiver",
      "type": "error"
    },
    {
      "inputs": [
        {
          "internalType": "address",
          "name": "sender",
          "type": "address"
        }
      ],
      "name": "ERC721InvalidSender",
      "type": "error"
    },
    {
      "inputs": [
        {
          "internalType": "uint256",
          "name": "tokenId",
          "type": "uint256"
        }
      ],
      "name": "ERC721NonexistentToken",
      "type": "error"
    },
    {
      "inputs": [
        {
          "internalType": "address",
          "name": "owner",
          "type": "address"
        }
      ],
      "name": "OwnableInvalidOwner",
      "type": "error"
    },
    {
      "inputs": [
        {
          "internalType": "address",
          "name": "account",
          "type": "address"
        }
      ],
      "name": "OwnableUnauthorizedAccount",
      "type": "error"
    },
    {
      "anonymous": false,
      "inputs": [
        {
          "indexed": true,
          "internalType": "address",
          "name": "owner",
          "type": "address"
        },
        {
          "indexed": true,
          "internalType": "address",
          "name": "approved",
          "type": "address"
        },
        {
          "indexed": true,
          "internalType": "uint256",
          "name": "tokenId",
          "type": "uint256"
        }
      ],
      "name": "Approval",
      "type": "event"
    },
    {
      "anonymous": false,
      "inputs": [
        {
          "indexed": true,
          "internalType": "address",
          "name": "owner",
          "type": "address"
        },
        {
          "indexed": true,
          "internalType": "address",
          "name": "operator",
          "type": "address"
        },
        {
          "indexed": false,
          "internalType": "bool",
          "name": "approved",
          "type": "bool"
        }
      ],
      "name": "ApprovalForAll",
      "type": "event"
    },
    {
      "anonymous": false,
      "inputs": [
        {
          "indexed": false,
          "internalType": "uint256",
          "name": "_fromTokenId",
          "type": "uint256"
        },
        {
          "indexed": false,
          "internalType": "uint256",
          "name": "_toTokenId",
          "type": "uint256"
        }
      ],
      "name": "BatchMetadataUpdate",
      "type": "event"
    },
    {
      "anonymous": false,
      "inputs": [
        {
          "indexed": true,
          "internalType": "uint256",
          "name": "tokenId",
          "type": "uint256"
        },
        {
          "indexed": false,
          "internalType": "address",
          "name": "seller",
          "type": "address"
        },
        {
          "indexed": false,
          "internalType": "uint256",
          "name": "strikePrice1",
          "type": "uint256"
        },
        {
          "indexed": false,
          "internalType": "uint256",
          "name": "strikePrice2",
          "type": "uint256"
        },
        {
          "indexed": false,
          "internalType": "uint256",
          "name": "expiry",
          "type": "uint256"
        }
      ],
      "name": "CallSpreadCreated",
      "type": "event"
    },
    {
      "anonymous": false,
      "inputs": [
        {
          "indexed": true,
          "internalType": "uint256",
          "name": "tokenId",
          "type": "uint256"
        },
        {
          "indexed": false,
          "internalType": "uint256",
          "name": "payoff",
          "type": "uint256"
        },
        {
          "indexed": false,
          "internalType": "uint256",
          "name": "btcPrice",
          "type": "uint256"
        }
      ],
      "name": "CallSpreadExercised",
      "type": "event"
    },
    {
      "anonymous": false,
      "inputs": [
        {
          "indexed": true,
          "internalType": "uint256",
          "name": "tokenId",
          "type": "uint256"
        },
        {
          "indexed": false,
          "internalType": "address",
          "name": "buyer",
          "type": "address"
        }
      ],
      "name": "CallSpreadPurchased",
      "type": "event"
    },
    {
      "anonymous": false,
      "inputs": [
        {
          "indexed": false,
          "internalType": "uint256",
          "name": "_tokenId",
          "type": "uint256"
        }
      ],
      "name": "MetadataUpdate",
      "type": "event"
    },
    {
      "anonymous": false,
      "inputs": [
        {
          "indexed": true,
          "internalType": "address",
          "name": "previousOwner",
          "type": "address"
        },
        {
          "indexed": true,
          "internalType": "address",
          "name": "newOwner",
          "type": "address"
        }
      ],
      "name": "OwnershipTransferred",
      "type": "event"
    },
    {
      "anonymous": false,
      "inputs": [
        {
          "indexed": true,
          "internalType": "address",
          "name": "from",
          "type": "address"
        },
        {
          "indexed": true,
          "internalType": "address",
          "name": "to",
          "type": "address"
        },
        {
          "indexed": true,
          "internalType": "uint256",
          "name": "tokenId",
          "type": "uint256"
        }
      ],
      "name": "Transfer",
      "type": "event"
    },
    {
      "inputs": [
        {
          "internalType": "address",
          "name": "to",
          "type": "address"
        },
        {
          "internalType": "uint256",
          "name": "tokenId",
          "type": "uint256"
        }
      ],
      "name": "approve",
      "outputs": [],
      "stateMutability": "nonpayable",
      "type": "function"
    },
    {
      "inputs": [
        {
          "internalType": "address",
          "name": "owner",
          "type": "address"
        }
      ],
      "name": "balanceOf",
      "outputs": [
        {
          "internalType": "uint256",
          "name": "",
          "type": "uint256"
        }
      ],
      "stateMutability": "view",
      "type": "function"
    },
    {
      "inputs": [
        {
          "internalType": "uint256",
          "name": "tokenId",
          "type": "uint256"
        }
      ],
      "name": "buyCallSpread",
      "outputs": [],
      "stateMutability": "nonpayable",
      "type": "function"
    },
    {
      "inputs": [
        {
          "internalType": "uint256",
          "name": "tokenId",
          "type": "uint256"
        },
        {
          "internalType": "uint256",
          "name": "currentPrice",
          "type": "uint256"
        }
      ],
      "name": "calculatePayoff",
      "outputs": [
        {
          "internalType": "uint256",
          "name": "",
          "type": "uint256"
        }
      ],
      "stateMutability": "view",
      "type": "function"
    },
    {
      "inputs": [
        {
          "internalType": "uint256",
          "name": "",
          "type": "uint256"
        }
      ],
      "name": "callSpreads",
      "outputs": [
        {
          "internalType": "uint256",
          "name": "strikePrice1",
          "type": "uint256"
        },
        {
          "internalType": "uint256",
          "name": "strikePrice2",
          "type": "uint256"
        },
        {
          "internalType": "uint256",
          "name": "expiry",
          "type": "uint256"
        },
        {
          "internalType": "uint256",
          "name": "collateral",
          "type": "uint256"
        },
        {
          "internalType": "address",
          "name": "seller",
          "type": "address"
        },
        {
          "internalType": "address",
          "name": "buyer",
          "type": "address"
        },
        {
          "internalType": "bool",
          "name": "exercised",
          "type": "bool"
        }
      ],
      "stateMutability": "view",
      "type": "function"
    },
    {
      "inputs": [
        {
          "internalType": "uint256",
          "name": "strikePrice1",
          "type": "uint256"
        },
        {
          "internalType": "uint256",
          "name": "strikePrice2",
          "type": "uint256"
        },
        {
          "internalType": "uint256",
          "name": "expiry",
          "type": "uint256"
        },
        {
          "internalType": "uint256",
          "name": "collateralAmount",
          "type": "uint256"
        },
        {
          "internalType": "string",
          "name": "_tokenURI",
          "type": "string"
        }
      ],
      "name": "createCallSpread",
      "outputs": [
        {
          "internalType": "uint256",
          "name": "",
          "type": "uint256"
        }
      ],
      "stateMutability": "nonpayable",
      "type": "function"
    },
    {
      "inputs": [
        {
          "internalType": "uint256",
          "name": "tokenId",
          "type": "uint256"
        }
      ],
      "name": "exerciseCallSpread",
      "outputs": [],
      "stateMutability": "nonpayable",
      "type": "function"
    },
    {
      "inputs": [
        {
          "internalType": "uint256",
          "name": "tokenId",
          "type": "uint256"
        }
      ],
      "name": "getApproved",
      "outputs": [
        {
          "internalType": "address",
          "name": "",
          "type": "address"
        }
      ],
      "stateMutability": "view",
      "type": "function"
    },
    {
      "inputs": [],
      "name": "getCurrentBTCPrice",
      "outputs": [
        {
          "internalType": "uint256",
          "name": "",
          "type": "uint256"
        }
      ],
      "stateMutability": "view",
      "type": "function"
    },
    {
      "inputs": [
        {
          "internalType": "address",
          "name": "owner",
          "type": "address"
        },
        {
          "internalType": "address",
          "name": "operator",
          "type": "address"
        }
      ],
      "name": "isApprovedForAll",
      "outputs": [
        {
          "internalType": "bool",
          "name": "",
          "type": "bool"
        }
      ],
      "stateMutability": "view",
      "type": "function"
    },
    {
      "inputs": [],
      "name": "name",
      "outputs": [
        {
          "internalType": "string",
          "name": "",
          "type": "string"
        }
      ],
      "stateMutability": "view",
      "type": "function"
    },
    {
      "inputs": [],
      "name": "owner",
      "outputs": [
        {
          "internalType": "address",
          "name": "",
          "type": "address"
        }
      ],
      "stateMutability": "view",
      "type": "function"
    },
    {
      "inputs": [
        {
          "internalType": "uint256",
          "name": "tokenId",
          "type": "uint256"
        }
      ],
      "name": "ownerOf",
      "outputs": [
        {
          "internalType": "address",
          "name": "",
          "type": "address"
        }
      ],
      "stateMutability": "view",
      "type": "function"
    },
    {
      "inputs": [],
      "name": "priceFeed",
      "outputs": [
        {
          "internalType": "contract AggregatorV3Interface",
          "name": "",
          "type": "address"
        }
      ],
      "stateMutability": "view",
      "type": "function"
    },
    {
      "inputs": [],
      "name": "renounceOwnership",
      "outputs": [],
      "stateMutability": "nonpayable",
      "type": "function"
    },
    {
      "inputs": [
        {
          "internalType": "address",
          "name": "from",
          "type": "address"
        },
        {
          "internalType": "address",
          "name": "to",
          "type": "address"
        },
        {
          "internalType": "uint256",
          "name": "tokenId",
          "type": "uint256"
        }
      ],
      "name": "safeTransferFrom",
      "outputs": [],
      "stateMutability": "nonpayable",
      "type": "function"
    },
    {
      "inputs": [
        {
          "internalType": "address",
          "name": "from",
          "type": "address"
        },
        {
          "internalType": "address",
          "name": "to",
          "type": "address"
        },
        {
          "internalType": "uint256",
          "name": "tokenId",
          "type": "uint256"
        },
        {
          "internalType": "bytes",
          "name": "data",
          "type": "bytes"
        }
      ],
      "name": "safeTransferFrom",
      "outputs": [],
      "stateMutability": "nonpayable",
      "type": "function"
    },
    {
      "inputs": [
        {
          "internalType": "address",
          "name": "operator",
          "type": "address"
        },
        {
          "internalType": "bool",
          "name": "approved",
          "type": "bool"
        }
      ],
      "name": "setApprovalForAll",
      "outputs": [],
      "stateMutability": "nonpayable",
      "type": "function"
    },
    {
      "inputs": [],
      "name": "stablecoin",
      "outputs": [
        {
          "internalType": "contract IERC20",
          "name": "",
          "type": "address"
        }
      ],
      "stateMutability": "view",
      "type": "function"
    },
    {
      "inputs": [
        {
          "internalType": "bytes4",
          "name": "interfaceId",
          "type": "bytes4"
        }
      ],
      "name": "supportsInterface",
      "outputs": [
        {
          "internalType": "bool",
          "name": "",
          "type": "bool"
        }
      ],
      "stateMutability": "view",
      "type": "function"
    },
    {
      "inputs": [],
      "name": "symbol",
      "outputs": [
        {
          "internalType": "string",
          "name": "",
          "type": "string"
        }
      ],
      "stateMutability": "view",
      "type": "function"
    },
    {
      "inputs": [
        {
          "internalType": "uint256",
          "name": "tokenId",
          "type": "uint256"
        }
      ],
      "name": "tokenURI",
      "outputs": [
        {
          "internalType": "string",
          "name": "",
          "type": "string"
        }
      ],
      "stateMutability": "view",
      "type": "function"
    },
    {
      "inputs": [
        {
          "internalType": "address",
          "name": "from",
          "type": "address"
        },
        {
          "internalType": "address",
          "name": "to",
          "type": "address"
        },
        {
          "internalType": "uint256",
          "name": "tokenId",
          "type": "uint256"
        }
      ],
      "name": "transferFrom",
      "outputs": [],
      "stateMutability": "nonpayable",
      "type": "function"
    },
    {
      "inputs": [
        {
          "internalType": "address",
          "name": "newOwner",
          "type": "address"
        }
      ],
      "name": "transferOwnership",
      "outputs": [],
      "stateMutability": "nonpayable",
      "type": "function"
    }
  ],
  "bytecode": "0x60806040523480156200001157600080fd5b50604051620044e0380380620044e083398181016040528101906200003791906200030b565b336040518060400160405280600f81526020017f4e46542043616c6c2053707265616400000000000000000000000000000000008152506040518060400160405280600581526020017f4e465443530000000000000000000000000000000000000000000000000000008152508160009081620000b59190620005cc565b508060019081620000c79190620005cc565b505050600073ffffffffffffffffffffffffffffffffffffffff168173ffffffffffffffffffffffffffffffffffffffff16036200013f5760006040517f1e4fbdf7000000000000000000000000000000000000000000000000000000008152600401620001369190620006c4565b60405180910390fd5b6200015081620001db60201b60201c565b5081600a60006101000a81548173ffffffffffffffffffffffffffffffffffffffff021916908373ffffffffffffffffffffffffffffffffffffffff16021790555080600b60006101000a81548173ffffffffffffffffffffffffffffffffffffffff021916908373ffffffffffffffffffffffffffffffffffffffff1602179055505050620006e1565b6000600760009054906101000a900473ffffffffffffffffffffffffffffffffffffffff16905081600760006101000a81548173ffffffffffffffffffffffffffffffffffffffff021916908373ffffffffffffffffffffffffffffffffffffffff1602179055508173ffffffffffffffffffffffffffffffffffffffff168173ffffffffffffffffffffffffffffffffffffffff167f8be0079c531659141344cd1fd0a4f28419497f9722a3daafe3b4186f6b6457e060405160405180910390a35050565b600080fd5b600073ffffffffffffffffffffffffffffffffffffffff82169050919050565b6000620002d382620002a6565b9050919050565b620002e581620002c6565b8114620002f157600080fd5b50565b6000815190506200030581620002da565b92915050565b60008060408385031215620003255762000324620002a1565b5b60006200033585828601620002f4565b92505060206200034885828601620002f4565b9150509250929050565b600081519050919050565b7f4e487b7100000000000000000000000000000000000000000000000000000000600052604160045260246000fd5b7f4e487b7100000000000000000000000000000000000000000000000000000000600052602260045260246000fd5b60006002820490506001821680620003d457607f821691505b602082108103620003ea57620003e96200038c565b5b50919050565b60008190508160005260206000209050919050565b60006020601f8301049050919050565b600082821b905092915050565b600060088302620004547fffffffffffffffffffffffffffffffffffffffffffffffffffffffffffffffff8262000415565b62000460868362000415565b95508019841693508086168417925050509392505050565b6000819050919050565b6000819050919050565b6000620004ad620004a7620004a18462000478565b62000482565b62000478565b9050919050565b6000819050919050565b620004c9836200048c565b620004e1620004d882620004b4565b84845462000422565b825550505050565b600090565b620004f8620004e9565b62000505818484620004be565b505050565b5b818110156200052d5762000521600082620004ee565b6001810190506200050b565b5050565b601f8211156200057c576200054681620003f0565b620005518462000405565b8101602085101562000561578190505b62000579620005708562000405565b8301826200050a565b50505b505050565b600082821c905092915050565b6000620005a16000198460080262000581565b1980831691505092915050565b6000620005bc83836200058e565b9150826002028217905092915050565b620005d78262000352565b67ffffffffffffffff811115620005f357620005f26200035d565b5b620005ff8254620003bb565b6200060c82828562000531565b600060209050601f8311600181146200064457600084156200062f578287015190505b6200063b8582620005ae565b865550620006ab565b601f1984166200065486620003f0565b60005b828110156200067e5784890151825560018201915060208501945060208101905062000657565b868310156200069e57848901516200069a601f8916826200058e565b8355505b6001600288020188555050505b505050505050565b620006be81620002c6565b82525050565b6000602082019050620006db6000830184620006b3565b92915050565b613def80620006f16000396000f3fe608060405234801561001057600080fd5b50600436106101585760003560e01c8063715018a6116100c3578063a22cb4651161007c578063a22cb465146103df578063b88d4fde146103fb578063c87b56dd14610417578063e985e9c514610447578063e9cbd82214610477578063f2fde38b1461049557610158565b8063715018a614610329578063741bef1a146103335780638da5cb5b1461035157806395d89b411461036f5780639841ac441461038d5780639abe0d58146103a957610158565b80633420115211610115578063342011521461024357806337b371d91461027357806342842e0e1461028f5780636352211e146102ab578063696c86cd146102db57806370a08231146102f957610158565b806301ffc9a71461015d57806306fdde031461018d578063081812fc146101ab578063095ea7b3146101db578063143e602c146101f757806323b872dd14610227575b600080fd5b610177600480360381019061017291906128e6565b6104b1565b604051610184919061292e565b60405180910390f35b6101956104c3565b6040516101a291906129d9565b60405180910390f35b6101c560048036038101906101c09190612a31565b610555565b6040516101d29190612a9f565b60405180910390f35b6101f560048036038101906101f09190612ae6565b610571565b005b610211600480360381019061020c9190612c5b565b610587565b60405161021e9190612d01565b60405180910390f35b610241600480360381019061023c9190612d1c565b6108fa565b005b61025d60048036038101906102589190612d6f565b6109fc565b60405161026a9190612d01565b60405180910390f35b61028d60048036038101906102889190612a31565b610a6a565b005b6102a960048036038101906102a49190612d1c565b610e48565b005b6102c560048036038101906102c09190612a31565b610e68565b6040516102d29190612a9f565b60405180910390f35b6102e3610e7a565b6040516102f09190612d01565b60405180910390f35b610313600480360381019061030e9190612daf565b610f5e565b6040516103209190612d01565b60405180910390f35b610331611018565b005b61033b61102c565b6040516103489190612e3b565b60405180910390f35b610359611052565b6040516103669190612a9f565b60405180910390f35b61037761107c565b60405161038491906129d9565b60405180910390f35b6103a760048036038101906103a29190612a31565b61110e565b005b6103c360048036038101906103be9190612a31565b61130c565b6040516103d69796959493929190612e56565b60405180910390f35b6103f960048036038101906103f49190612ef1565b61139b565b005b61041560048036038101906104109190612fd2565b6113b1565b005b610431600480360381019061042c9190612a31565b6113d6565b60405161043e91906129d9565b60405180910390f35b610461600480360381019061045c9190613055565b6113e8565b60405161046e919061292e565b60405180910390f35b61047f61147c565b60405161048c91906130b6565b60405180910390f35b6104af60048036038101906104aa9190612daf565b6114a2565b005b60006104bc82611528565b9050919050565b6060600080546104d290613100565b80601f01602080910402602001604051908101604052809291908181526020018280546104fe90613100565b801561054b5780601f106105205761010080835404028352916020019161054b565b820191906000526020600020905b81548152906001019060200180831161052e57829003601f168201915b5050505050905090565b600061056082611589565b5061056a82611611565b9050919050565b610583828261057e61164e565b611656565b5050565b60008486106105cb576040517f08c379a00000000000000000000000000000000000000000000000000000000081526004016105c2906131a3565b60405180910390fd5b42841161060d576040517f08c379a000000000000000000000000000000000000000000000000000000000815260040161060490613235565b60405180910390fd5b60008311610650576040517f08c379a0000000000000000000000000000000000000000000000000000000008152600401610647906132a1565b60405180910390fd5b600a60009054906101000a900473ffffffffffffffffffffffffffffffffffffffff1673ffffffffffffffffffffffffffffffffffffffff166323b872dd3330866040518463ffffffff1660e01b81526004016106af939291906132c1565b6020604051808303816000875af11580156106ce573d6000803e3d6000fd5b505050506040513d601f19601f820116820180604052508101906106f2919061330d565b610731576040517f08c379a000000000000000000000000000000000000000000000000000000000815260040161072890613386565b60405180910390fd5b600060086000815480929190610746906133d5565b9190505590506040518060e001604052808881526020018781526020018681526020018581526020013373ffffffffffffffffffffffffffffffffffffffff168152602001600073ffffffffffffffffffffffffffffffffffffffff16815260200160001515815250600960008381526020019081526020016000206000820151816000015560208201518160010155604082015181600201556060820151816003015560808201518160040160006101000a81548173ffffffffffffffffffffffffffffffffffffffff021916908373ffffffffffffffffffffffffffffffffffffffff16021790555060a08201518160050160006101000a81548173ffffffffffffffffffffffffffffffffffffffff021916908373ffffffffffffffffffffffffffffffffffffffff16021790555060c08201518160050160146101000a81548160ff0219169083151502179055509050506108a53382611668565b6108af8184611686565b807faeccbfaf65ad7aba452b41d0c65100e7f22a90b90d0dfb7439da1b3ef280ff06338989896040516108e5949392919061341d565b60405180910390a28091505095945050505050565b600073ffffffffffffffffffffffffffffffffffffffff168273ffffffffffffffffffffffffffffffffffffffff160361096c5760006040517f64a0ae920000000000000000000000000000000000000000000000000000000081526004016109639190612a9f565b60405180910390fd5b6000610980838361097b61164e565b6116e2565b90508373ffffffffffffffffffffffffffffffffffffffff168173ffffffffffffffffffffffffffffffffffffffff16146109f6578382826040517f64283d7b0000000000000000000000000000000000000000000000000000000081526004016109ed93929190613462565b60405180910390fd5b50505050565b60008060096000858152602001908152602001600020905080600001548311610a29576000915050610a64565b80600101548310610a505780600001548160010154610a489190613499565b915050610a64565b806000015483610a609190613499565b9150505b92915050565b60006009600083815260200190815260200160002090508060050160149054906101000a900460ff1615610ad3576040517f08c379a0000000000000000000000000000000000000000000000000000000008152600401610aca90613519565b60405180910390fd5b8060020154421015610b1a576040517f08c379a0000000000000000000000000000000000000000000000000000000008152600401610b1190613585565b60405180910390fd5b60018160050160146101000a81548160ff0219169083151502179055506000610b41610e7a565b90506000610b4f84836109fc565b905060008073ffffffffffffffffffffffffffffffffffffffff168460050160009054906101000a900473ffffffffffffffffffffffffffffffffffffffff1673ffffffffffffffffffffffffffffffffffffffff1603610bd4578360040160009054906101000a900473ffffffffffffffffffffffffffffffffffffffff16610bfa565b8360050160009054906101000a900473ffffffffffffffffffffffffffffffffffffffff165b90506000821115610ce557600a60009054906101000a900473ffffffffffffffffffffffffffffffffffffffff1673ffffffffffffffffffffffffffffffffffffffff1663a9059cbb82846040518363ffffffff1660e01b8152600401610c629291906135a5565b6020604051808303816000875af1158015610c81573d6000803e3d6000fd5b505050506040513d601f19601f82011682018060405250810190610ca5919061330d565b610ce4576040517f08c379a0000000000000000000000000000000000000000000000000000000008152600401610cdb9061361a565b60405180910390fd5b5b6000828560030154610cf79190613499565b90506000811115610e0657600a60009054906101000a900473ffffffffffffffffffffffffffffffffffffffff1673ffffffffffffffffffffffffffffffffffffffff1663a9059cbb8660040160009054906101000a900473ffffffffffffffffffffffffffffffffffffffff16836040518363ffffffff1660e01b8152600401610d839291906135a5565b6020604051808303816000875af1158015610da2573d6000803e3d6000fd5b505050506040513d601f19601f82011682018060405250810190610dc6919061330d565b610e05576040517f08c379a0000000000000000000000000000000000000000000000000000000008152600401610dfc906136ac565b60405180910390fd5b5b857fb3229cca4d7dce5064bbe840844410c87eb491cb8de1adba5386238aeb50439a8486604051610e389291906136cc565b60405180910390a2505050505050565b610e63838383604051806020016040528060008152506113b1565b505050565b6000610e7382611589565b9050919050565b600080600b60009054906101000a900473ffffffffffffffffffffffffffffffffffffffff1673ffffffffffffffffffffffffffffffffffffffff1663feaf968c6040518163ffffffff1660e01b815260040160a060405180830381865afa158015610eea573d6000803e3d6000fd5b505050506040513d601f19601f82011682018060405250810190610f0e9190613782565b50505091505060008113610f57576040517f08c379a0000000000000000000000000000000000000000000000000000000008152600401610f4e90613849565b60405180910390fd5b8091505090565b60008073ffffffffffffffffffffffffffffffffffffffff168273ffffffffffffffffffffffffffffffffffffffff1603610fd15760006040517f89c62b64000000000000000000000000000000000000000000000000000000008152600401610fc89190612a9f565b60405180910390fd5b600360008373ffffffffffffffffffffffffffffffffffffffff1673ffffffffffffffffffffffffffffffffffffffff168152602001908152602001600020549050919050565b6110206118fc565b61102a6000611983565b565b600b60009054906101000a900473ffffffffffffffffffffffffffffffffffffffff1681565b6000600760009054906101000a900473ffffffffffffffffffffffffffffffffffffffff16905090565b60606001805461108b90613100565b80601f01602080910402602001604051908101604052809291908181526020018280546110b790613100565b80156111045780601f106110d957610100808354040283529160200191611104565b820191906000526020600020905b8154815290600101906020018083116110e757829003601f168201915b5050505050905090565b60006009600083815260200190815260200160002090504281600201541161116b576040517f08c379a0000000000000000000000000000000000000000000000000000000008152600401611162906138b5565b60405180910390fd5b600073ffffffffffffffffffffffffffffffffffffffff168160050160009054906101000a900473ffffffffffffffffffffffffffffffffffffffff1673ffffffffffffffffffffffffffffffffffffffff16146111fe576040517f08c379a00000000000000000000000000000000000000000000000000000000081526004016111f590613921565b60405180910390fd5b3373ffffffffffffffffffffffffffffffffffffffff1661121e83610e68565b73ffffffffffffffffffffffffffffffffffffffff1603611274576040517f08c379a000000000000000000000000000000000000000000000000000000000815260040161126b906139b3565b60405180910390fd5b338160050160006101000a81548173ffffffffffffffffffffffffffffffffffffffff021916908373ffffffffffffffffffffffffffffffffffffffff16021790555060006112c283610e68565b90506112cf813385611a49565b827f6c35fe455375b6647f82e638fc154f286bcc5a02f6ace0290d36aa7ea5aa5413336040516112ff9190612a9f565b60405180910390a2505050565b60096020528060005260406000206000915090508060000154908060010154908060020154908060030154908060040160009054906101000a900473ffffffffffffffffffffffffffffffffffffffff16908060050160009054906101000a900473ffffffffffffffffffffffffffffffffffffffff16908060050160149054906101000a900460ff16905087565b6113ad6113a661164e565b8383611bb6565b5050565b6113bc8484846108fa565b6113d06113c761164e565b85858585611d25565b50505050565b60606113e182611ed6565b9050919050565b6000600560008473ffffffffffffffffffffffffffffffffffffffff1673ffffffffffffffffffffffffffffffffffffffff16815260200190815260200160002060008373ffffffffffffffffffffffffffffffffffffffff1673ffffffffffffffffffffffffffffffffffffffff16815260200190815260200160002060009054906101000a900460ff16905092915050565b600a60009054906101000a900473ffffffffffffffffffffffffffffffffffffffff1681565b6114aa6118fc565b600073ffffffffffffffffffffffffffffffffffffffff168173ffffffffffffffffffffffffffffffffffffffff160361151c5760006040517f1e4fbdf70000000000000000000000000000000000000000000000000000000081526004016115139190612a9f565b60405180910390fd5b61152581611983565b50565b6000634906490660e01b7bffffffffffffffffffffffffffffffffffffffffffffffffffffffff1916827bffffffffffffffffffffffffffffffffffffffffffffffffffffffff19161480611582575061158182611fe9565b5b9050919050565b600080611595836120cb565b9050600073ffffffffffffffffffffffffffffffffffffffff168173ffffffffffffffffffffffffffffffffffffffff160361160857826040517f7e2732890000000000000000000000000000000000000000000000000000000081526004016115ff9190612d01565b60405180910390fd5b80915050919050565b60006004600083815260200190815260200160002060009054906101000a900473ffffffffffffffffffffffffffffffffffffffff169050919050565b600033905090565b6116638383836001612108565b505050565b6116828282604051806020016040528060008152506122cd565b5050565b806006600084815260200190815260200160002090816116a69190613b75565b507ff8e1a15aba9398e019f0b49df1a4fde98ee17ae345cb5f6b5e2c27f5033e8ce7826040516116d69190612d01565b60405180910390a15050565b6000806116ee846120cb565b9050600073ffffffffffffffffffffffffffffffffffffffff168373ffffffffffffffffffffffffffffffffffffffff16146117305761172f8184866122f1565b5b600073ffffffffffffffffffffffffffffffffffffffff168173ffffffffffffffffffffffffffffffffffffffff16146117c157611772600085600080612108565b6001600360008373ffffffffffffffffffffffffffffffffffffffff1673ffffffffffffffffffffffffffffffffffffffff168152602001908152602001600020600082825403925050819055505b600073ffffffffffffffffffffffffffffffffffffffff168573ffffffffffffffffffffffffffffffffffffffff1614611844576001600360008773ffffffffffffffffffffffffffffffffffffffff1673ffffffffffffffffffffffffffffffffffffffff168152602001908152602001600020600082825401925050819055505b846002600086815260200190815260200160002060006101000a81548173ffffffffffffffffffffffffffffffffffffffff021916908373ffffffffffffffffffffffffffffffffffffffff160217905550838573ffffffffffffffffffffffffffffffffffffffff168273ffffffffffffffffffffffffffffffffffffffff167fddf252ad1be2c89b69c2b068fc378daa952ba7f163c4a11628f55a4df523b3ef60405160405180910390a4809150509392505050565b61190461164e565b73ffffffffffffffffffffffffffffffffffffffff16611922611052565b73ffffffffffffffffffffffffffffffffffffffff16146119815761194561164e565b6040517f118cdaa70000000000000000000000000000000000000000000000000000000081526004016119789190612a9f565b60405180910390fd5b565b6000600760009054906101000a900473ffffffffffffffffffffffffffffffffffffffff16905081600760006101000a81548173ffffffffffffffffffffffffffffffffffffffff021916908373ffffffffffffffffffffffffffffffffffffffff1602179055508173ffffffffffffffffffffffffffffffffffffffff168173ffffffffffffffffffffffffffffffffffffffff167f8be0079c531659141344cd1fd0a4f28419497f9722a3daafe3b4186f6b6457e060405160405180910390a35050565b600073ffffffffffffffffffffffffffffffffffffffff168273ffffffffffffffffffffffffffffffffffffffff1603611abb5760006040517f64a0ae92000000000000000000000000000000000000000000000000000000008152600401611ab29190612a9f565b60405180910390fd5b6000611ac9838360006116e2565b9050600073ffffffffffffffffffffffffffffffffffffffff168173ffffffffffffffffffffffffffffffffffffffff1603611b3c57816040517f7e273289000000000000000000000000000000000000000000000000000000008152600401611b339190612d01565b60405180910390fd5b8373ffffffffffffffffffffffffffffffffffffffff168173ffffffffffffffffffffffffffffffffffffffff1614611bb0578382826040517f64283d7b000000000000000000000000000000000000000000000000000000008152600401611ba793929190613462565b60405180910390fd5b50505050565b600073ffffffffffffffffffffffffffffffffffffffff168273ffffffffffffffffffffffffffffffffffffffff1603611c2757816040517f5b08ba18000000000000000000000000000000000000000000000000000000008152600401611c1e9190612a9f565b60405180910390fd5b80600560008573ffffffffffffffffffffffffffffffffffffffff1673ffffffffffffffffffffffffffffffffffffffff16815260200190815260200160002060008473ffffffffffffffffffffffffffffffffffffffff1673ffffffffffffffffffffffffffffffffffffffff16815260200190815260200160002060006101000a81548160ff0219169083151502179055508173ffffffffffffffffffffffffffffffffffffffff168373ffffffffffffffffffffffffffffffffffffffff167f17307eab39ab6107e8899845ad3d59bd9653f200f220920489ca2b5937696c3183604051611d18919061292e565b60405180910390a3505050565b60008373ffffffffffffffffffffffffffffffffffffffff163b1115611ecf578273ffffffffffffffffffffffffffffffffffffffff1663150b7a02868685856040518563ffffffff1660e01b8152600401611d849493929190613c9c565b6020604051808303816000875af1925050508015611dc057506040513d601f19601f82011682018060405250810190611dbd9190613cfd565b60015b611e44573d8060008114611df0576040519150601f19603f3d011682016040523d82523d6000602084013e611df5565b606091505b506000815103611e3c57836040517f64a0ae92000000000000000000000000000000000000000000000000000000008152600401611e339190612a9f565b60405180910390fd5b805181602001fd5b63150b7a0260e01b7bffffffffffffffffffffffffffffffffffffffffffffffffffffffff1916817bffffffffffffffffffffffffffffffffffffffffffffffffffffffff191614611ecd57836040517f64a0ae92000000000000000000000000000000000000000000000000000000008152600401611ec49190612a9f565b60405180910390fd5b505b5050505050565b6060611ee182611589565b506000600660008481526020019081526020016000208054611f0290613100565b80601f0160208091040260200160405190810160405280929190818152602001828054611f2e90613100565b8015611f7b5780601f10611f5057610100808354040283529160200191611f7b565b820191906000526020600020905b815481529060010190602001808311611f5e57829003601f168201915b505050505090506000611f8c6123b5565b90506000815103611fa1578192505050611fe4565b600082511115611fd6578082604051602001611fbe929190613d66565b60405160208183030381529060405292505050611fe4565b611fdf846123cc565b925050505b919050565b60007f80ac58cd000000000000000000000000000000000000000000000000000000007bffffffffffffffffffffffffffffffffffffffffffffffffffffffff1916827bffffffffffffffffffffffffffffffffffffffffffffffffffffffff191614806120b457507f5b5e139f000000000000000000000000000000000000000000000000000000007bffffffffffffffffffffffffffffffffffffffffffffffffffffffff1916827bffffffffffffffffffffffffffffffffffffffffffffffffffffffff1916145b806120c457506120c382612435565b5b9050919050565b60006002600083815260200190815260200160002060009054906101000a900473ffffffffffffffffffffffffffffffffffffffff169050919050565b80806121415750600073ffffffffffffffffffffffffffffffffffffffff168273ffffffffffffffffffffffffffffffffffffffff1614155b1561227557600061215184611589565b9050600073ffffffffffffffffffffffffffffffffffffffff168373ffffffffffffffffffffffffffffffffffffffff16141580156121bc57508273ffffffffffffffffffffffffffffffffffffffff168173ffffffffffffffffffffffffffffffffffffffff1614155b80156121cf57506121cd81846113e8565b155b1561221157826040517fa9fbf51f0000000000000000000000000000000000000000000000000000000081526004016122089190612a9f565b60405180910390fd5b811561227357838573ffffffffffffffffffffffffffffffffffffffff168273ffffffffffffffffffffffffffffffffffffffff167f8c5be1e5ebec7d5bd14f71427d1e84f3dd0314c0f7b2291e5b200ac8c7c3b92560405160405180910390a45b505b836004600085815260200190815260200160002060006101000a81548173ffffffffffffffffffffffffffffffffffffffff021916908373ffffffffffffffffffffffffffffffffffffffff16021790555050505050565b6122d7838361249f565b6122ec6122e261164e565b6000858585611d25565b505050565b6122fc838383612598565b6123b057600073ffffffffffffffffffffffffffffffffffffffff168373ffffffffffffffffffffffffffffffffffffffff160361237157806040517f7e2732890000000000000000000000000000000000000000000000000000000081526004016123689190612d01565b60405180910390fd5b81816040517f177e802f0000000000000000000000000000000000000000000000000000000081526004016123a79291906135a5565b60405180910390fd5b505050565b606060405180602001604052806000815250905090565b60606123d782611589565b5060006123e26123b5565b90506000815111612402576040518060200160405280600081525061242d565b8061240c84612659565b60405160200161241d929190613d66565b6040516020818303038152906040525b915050919050565b60007f01ffc9a7000000000000000000000000000000000000000000000000000000007bffffffffffffffffffffffffffffffffffffffffffffffffffffffff1916827bffffffffffffffffffffffffffffffffffffffffffffffffffffffff1916149050919050565b600073ffffffffffffffffffffffffffffffffffffffff168273ffffffffffffffffffffffffffffffffffffffff16036125115760006040517f64a0ae920000000000000000000000000000000000000000000000000000000081526004016125089190612a9f565b60405180910390fd5b600061251f838360006116e2565b9050600073ffffffffffffffffffffffffffffffffffffffff168173ffffffffffffffffffffffffffffffffffffffff16146125935760006040517f73c6ac6e00000000000000000000000000000000000000000000000000000000815260040161258a9190612a9f565b60405180910390fd5b505050565b60008073ffffffffffffffffffffffffffffffffffffffff168373ffffffffffffffffffffffffffffffffffffffff161415801561265057508273ffffffffffffffffffffffffffffffffffffffff168473ffffffffffffffffffffffffffffffffffffffff161480612611575061261084846113e8565b5b8061264f57508273ffffffffffffffffffffffffffffffffffffffff1661263783611611565b73ffffffffffffffffffffffffffffffffffffffff16145b5b90509392505050565b60606000600161266884612727565b01905060008167ffffffffffffffff81111561268757612686612b30565b5b6040519080825280601f01601f1916602001820160405280156126b95781602001600182028036833780820191505090505b509050600082602001820190505b60011561271c578080600190039150507f3031323334353637383961626364656600000000000000000000000000000000600a86061a8153600a85816127105761270f613d8a565b5b049450600085036126c7575b819350505050919050565b600080600090507a184f03e93ff9f4daa797ed6e38ed64bf6a1f0100000000000000008310612785577a184f03e93ff9f4daa797ed6e38ed64bf6a1f010000000000000000838161277b5761277a613d8a565b5b0492506040810190505b6d04ee2d6d415b85acef810000000083106127c2576d04ee2d6d415b85acef810000000083816127b8576127b7613d8a565b5b0492506020810190505b662386f26fc1000083106127f157662386f26fc1000083816127e7576127e6613d8a565b5b0492506010810190505b6305f5e100831061281a576305f5e10083816128105761280f613d8a565b5b0492506008810190505b612710831061283f57612710838161283557612834613d8a565b5b0492506004810190505b60648310612862576064838161285857612857613d8a565b5b0492506002810190505b600a8310612871576001810190505b80915050919050565b6000604051905090565b600080fd5b600080fd5b60007fffffffff0000000000000000000000000000000000000000000000000000000082169050919050565b6128c38161288e565b81146128ce57600080fd5b50565b6000813590506128e0816128ba565b92915050565b6000602082840312156128fc576128fb612884565b5b600061290a848285016128d1565b91505092915050565b60008115159050919050565b61292881612913565b82525050565b6000602082019050612943600083018461291f565b92915050565b600081519050919050565b600082825260208201905092915050565b60005b83811015612983578082015181840152602081019050612968565b60008484015250505050565b6000601f19601f8301169050919050565b60006129ab82612949565b6129b58185612954565b93506129c5818560208601612965565b6129ce8161298f565b840191505092915050565b600060208201905081810360008301526129f381846129a0565b905092915050565b6000819050919050565b612a0e816129fb565b8114612a1957600080fd5b50565b600081359050612a2b81612a05565b92915050565b600060208284031215612a4757612a46612884565b5b6000612a5584828501612a1c565b91505092915050565b600073ffffffffffffffffffffffffffffffffffffffff82169050919050565b6000612a8982612a5e565b9050919050565b612a9981612a7e565b82525050565b6000602082019050612ab46000830184612a90565b92915050565b612ac381612a7e565b8114612ace57600080fd5b50565b600081359050612ae081612aba565b92915050565b60008060408385031215612afd57612afc612884565b5b6000612b0b85828601612ad1565b9250506020612b1c85828601612a1c565b9150509250929050565b600080fd5b600080fd5b7f4e487b7100000000000000000000000000000000000000000000000000000000600052604160045260246000fd5b612b688261298f565b810181811067ffffffffffffffff82111715612b8757612b86612b30565b5b80604052505050565b6000612b9a61287a565b9050612ba68282612b5f565b919050565b600067ffffffffffffffff821115612bc657612bc5612b30565b5b612bcf8261298f565b9050602081019050919050565b82818337600083830152505050565b6000612bfe612bf984612bab565b612b90565b905082815260208101848484011115612c1a57612c19612b2b565b5b612c25848285612bdc565b509392505050565b600082601f830112612c4257612c41612b26565b5b8135612c52848260208601612beb565b91505092915050565b600080600080600060a08688031215612c7757612c76612884565b5b6000612c8588828901612a1c565b9550506020612c9688828901612a1c565b9450506040612ca788828901612a1c565b9350506060612cb888828901612a1c565b925050608086013567ffffffffffffffff811115612cd957612cd8612889565b5b612ce588828901612c2d565b9150509295509295909350565b612cfb816129fb565b82525050565b6000602082019050612d166000830184612cf2565b92915050565b600080600060608486031215612d3557612d34612884565b5b6000612d4386828701612ad1565b9350506020612d5486828701612ad1565b9250506040612d6586828701612a1c565b9150509250925092565b60008060408385031215612d8657612d85612884565b5b6000612d9485828601612a1c565b9250506020612da585828601612a1c565b9150509250929050565b600060208284031215612dc557612dc4612884565b5b6000612dd384828501612ad1565b91505092915050565b6000819050919050565b6000612e01612dfc612df784612a5e565b612ddc565b612a5e565b9050919050565b6000612e1382612de6565b9050919050565b6000612e2582612e08565b9050919050565b612e3581612e1a565b82525050565b6000602082019050612e506000830184612e2c565b92915050565b600060e082019050612e6b600083018a612cf2565b612e786020830189612cf2565b612e856040830188612cf2565b612e926060830187612cf2565b612e9f6080830186612a90565b612eac60a0830185612a90565b612eb960c083018461291f565b98975050505050505050565b612ece81612913565b8114612ed957600080fd5b50565b600081359050612eeb81612ec5565b92915050565b60008060408385031215612f0857612f07612884565b5b6000612f1685828601612ad1565b9250506020612f2785828601612edc565b9150509250929050565b600067ffffffffffffffff821115612f4c57612f4b612b30565b5b612f558261298f565b9050602081019050919050565b6000612f75612f7084612f31565b612b90565b905082815260208101848484011115612f9157612f90612b2b565b5b612f9c848285612bdc565b509392505050565b600082601f830112612fb957612fb8612b26565b5b8135612fc9848260208601612f62565b91505092915050565b60008060008060808587031215612fec57612feb612884565b5b6000612ffa87828801612ad1565b945050602061300b87828801612ad1565b935050604061301c87828801612a1c565b925050606085013567ffffffffffffffff81111561303d5761303c612889565b5b61304987828801612fa4565b91505092959194509250565b6000806040838503121561306c5761306b612884565b5b600061307a85828601612ad1565b925050602061308b85828601612ad1565b9150509250929050565b60006130a082612e08565b9050919050565b6130b081613095565b82525050565b60006020820190506130cb60008301846130a7565b92915050565b7f4e487b7100000000000000000000000000000000000000000000000000000000600052602260045260246000fd5b6000600282049050600182168061311857607f821691505b60208210810361312b5761312a6130d1565b5b50919050565b7f537472696b653120646f6974206574726520696e66657269657572206120537460008201527f72696b6532000000000000000000000000000000000000000000000000000000602082015250565b600061318d602583612954565b915061319882613131565b604082019050919050565b600060208201905081810360008301526131bc81613180565b9050919050565b7f4c2765787069726174696f6e20646f697420657472652064616e73206c65206660008201527f7574757200000000000000000000000000000000000000000000000000000000602082015250565b600061321f602483612954565b915061322a826131c3565b604082019050919050565b6000602082019050818103600083015261324e81613212565b9050919050565b7f4c6520636f6c6c61746572616c20646f6974206574726520706f736974696600600082015250565b600061328b601f83612954565b915061329682613255565b602082019050919050565b600060208201905081810360008301526132ba8161327e565b9050919050565b60006060820190506132d66000830186612a90565b6132e36020830185612a90565b6132f06040830184612cf2565b949350505050565b60008151905061330781612ec5565b92915050565b60006020828403121561332357613322612884565b5b6000613331848285016132f8565b91505092915050565b7f5472616e736665727420646520636f6c6c61746572616c206563686f75650000600082015250565b6000613370601e83612954565b915061337b8261333a565b602082019050919050565b6000602082019050818103600083015261339f81613363565b9050919050565b7f4e487b7100000000000000000000000000000000000000000000000000000000600052601160045260246000fd5b60006133e0826129fb565b91507fffffffffffffffffffffffffffffffffffffffffffffffffffffffffffffffff8203613412576134116133a6565b5b600182019050919050565b60006080820190506134326000830187612a90565b61343f6020830186612cf2565b61344c6040830185612cf2565b6134596060830184612cf2565b95945050505050565b60006060820190506134776000830186612a90565b6134846020830185612cf2565b6134916040830184612a90565b949350505050565b60006134a4826129fb565b91506134af836129fb565b92508282039050818111156134c7576134c66133a6565b5b92915050565b7f4c276f7074696f6e20612064656a612065746520657865726365650000000000600082015250565b6000613503601b83612954565b915061350e826134cd565b602082019050919050565b60006020820190508181036000830152613532816134f6565b9050919050565b7f4c276f7074696f6e206e27612070617320656e636f7265206578706972650000600082015250565b600061356f601e83612954565b915061357a82613539565b602082019050919050565b6000602082019050818103600083015261359e81613562565b9050919050565b60006040820190506135ba6000830185612a90565b6135c76020830184612cf2565b9392505050565b7f5472616e7366657274206465207061796f6666206563686f7565000000000000600082015250565b6000613604601a83612954565b915061360f826135ce565b602082019050919050565b60006020820190508181036000830152613633816135f7565b9050919050565b7f5472616e736665727420646520636f6c6c61746572616c2072657374616e742060008201527f6563686f75650000000000000000000000000000000000000000000000000000602082015250565b6000613696602683612954565b91506136a18261363a565b604082019050919050565b600060208201905081810360008301526136c581613689565b9050919050565b60006040820190506136e16000830185612cf2565b6136ee6020830184612cf2565b9392505050565b600069ffffffffffffffffffff82169050919050565b613714816136f5565b811461371f57600080fd5b50565b6000815190506137318161370b565b92915050565b6000819050919050565b61374a81613737565b811461375557600080fd5b50565b60008151905061376781613741565b92915050565b60008151905061377c81612a05565b92915050565b600080600080600060a0868803121561379e5761379d612884565b5b60006137ac88828901613722565b95505060206137bd88828901613758565b94505060406137ce8882890161376d565b93505060606137df8882890161376d565b92505060806137f088828901613722565b9150509295509295909350565b7f507269782042544320696e76616c696465000000000000000000000000000000600082015250565b6000613833601183612954565b915061383e826137fd565b602082019050919050565b6000602082019050818103600083015261386281613826565b9050919050565b7f4c276f7074696f6e206120657870697265000000000000000000000000000000600082015250565b600061389f601183612954565b91506138aa82613869565b602082019050919050565b600060208201905081810360008301526138ce81613892565b9050919050565b7f4c276f7074696f6e20612064656a612065746520616368657465650000000000600082015250565b600061390b601b83612954565b9150613916826138d5565b602082019050919050565b6000602082019050818103600083015261393a816138fe565b9050919050565b7f566f7573206e6520706f7576657a20706173206163686574657220766f74726560008201527f2070726f707265206f7074696f6e000000000000000000000000000000000000602082015250565b600061399d602e83612954565b91506139a882613941565b604082019050919050565b600060208201905081810360008301526139cc81613990565b9050919050565b60008190508160005260206000209050919050565b60006020601f8301049050919050565b600082821b905092915050565b600060088302613a357fffffffffffffffffffffffffffffffffffffffffffffffffffffffffffffffff826139f8565b613a3f86836139f8565b95508019841693508086168417925050509392505050565b6000613a72613a6d613a68846129fb565b612ddc565b6129fb565b9050919050565b6000819050919050565b613a8c83613a57565b613aa0613a9882613a79565b848454613a05565b825550505050565b600090565b613ab5613aa8565b613ac0818484613a83565b505050565b5b81811015613ae457613ad9600082613aad565b600181019050613ac6565b5050565b601f821115613b2957613afa816139d3565b613b03846139e8565b81016020851015613b12578190505b613b26613b1e856139e8565b830182613ac5565b50505b505050565b600082821c905092915050565b6000613b4c60001984600802613b2e565b1980831691505092915050565b6000613b658383613b3b565b9150826002028217905092915050565b613b7e82612949565b67ffffffffffffffff811115613b9757613b96612b30565b5b613ba18254613100565b613bac828285613ae8565b600060209050601f831160018114613bdf5760008415613bcd578287015190505b613bd78582613b59565b865550613c3f565b601f198416613bed866139d3565b60005b82811015613c1557848901518255600182019150602085019450602081019050613bf0565b86831015613c325784890151613c2e601f891682613b3b565b8355505b6001600288020188555050505b505050505050565b600081519050919050565b600082825260208201905092915050565b6000613c6e82613c47565b613c788185613c52565b9350613c88818560208601612965565b613c918161298f565b840191505092915050565b6000608082019050613cb16000830187612a90565b613cbe6020830186612a90565b613ccb6040830185612cf2565b8181036060830152613cdd8184613c63565b905095945050505050565b600081519050613cf7816128ba565b92915050565b600060208284031215613d1357613d12612884565b5b6000613d2184828501613ce8565b91505092915050565b600081905092915050565b6000613d4082612949565b613d4a8185613d2a565b9350613d5a818560208601612965565b80840191505092915050565b6000613d728285613d35565b9150613d7e8284613d35565b91508190509392505050565b7f4e487b7100000000000000000000000000000000000000000000000000000000600052601260045260246000fdfea2646970667358221220cddb372110bd4b6444dde837de85e5a772650ed2efa4df7aa16070c4979498da64736f6c63430008140033",
  "linkReferences": {},
  "deployedLinkReferences": {}
}